{
    "_format": "hh-sol-artifact-1",
    "contractName": "BabyBooCollection",
    "sourceName": "contracts/BabyBooCollection.sol",
    "abi": [
        {
            "inputs": [
                {
                    "internalType": "string",
                    "name": "_name",
                    "type": "string"
                },
                {
                    "internalType": "string",
                    "name": "_symbol",
                    "type": "string"
                },
                {
                    "internalType": "string",
                    "name": "_baseUri",
                    "type": "string"
                }
            ],
            "stateMutability": "nonpayable",
            "type": "constructor"
        },
        {
            "anonymous": false,
            "inputs": [
                {
                    "indexed": true,
                    "internalType": "address",
                    "name": "account",
                    "type": "address"
                },
                {
                    "indexed": true,
                    "internalType": "address",
                    "name": "operator",
                    "type": "address"
                },
                {
                    "indexed": false,
                    "internalType": "bool",
                    "name": "approved",
                    "type": "bool"
                }
            ],
            "name": "ApprovalForAll",
            "type": "event"
        },
        {
            "anonymous": false,
            "inputs": [
                {
                    "indexed": true,
                    "internalType": "address",
                    "name": "previousOwner",
                    "type": "address"
                },
                {
                    "indexed": true,
                    "internalType": "address",
                    "name": "newOwner",
                    "type": "address"
                }
            ],
            "name": "OwnershipTransferred",
            "type": "event"
        },
        {
            "anonymous": false,
            "inputs": [
                {
                    "indexed": true,
                    "internalType": "address",
                    "name": "operator",
                    "type": "address"
                },
                {
                    "indexed": true,
                    "internalType": "address",
                    "name": "from",
                    "type": "address"
                },
                {
                    "indexed": true,
                    "internalType": "address",
                    "name": "to",
                    "type": "address"
                },
                {
                    "indexed": false,
                    "internalType": "uint256[]",
                    "name": "ids",
                    "type": "uint256[]"
                },
                {
                    "indexed": false,
                    "internalType": "uint256[]",
                    "name": "values",
                    "type": "uint256[]"
                }
            ],
            "name": "TransferBatch",
            "type": "event"
        },
        {
            "anonymous": false,
            "inputs": [
                {
                    "indexed": true,
                    "internalType": "address",
                    "name": "operator",
                    "type": "address"
                },
                {
                    "indexed": true,
                    "internalType": "address",
                    "name": "from",
                    "type": "address"
                },
                {
                    "indexed": true,
                    "internalType": "address",
                    "name": "to",
                    "type": "address"
                },
                {
                    "indexed": false,
                    "internalType": "uint256",
                    "name": "id",
                    "type": "uint256"
                },
                {
                    "indexed": false,
                    "internalType": "uint256",
                    "name": "value",
                    "type": "uint256"
                }
            ],
            "name": "TransferSingle",
            "type": "event"
        },
        {
            "anonymous": false,
            "inputs": [
                {
                    "indexed": false,
                    "internalType": "string",
                    "name": "value",
                    "type": "string"
                },
                {
                    "indexed": true,
                    "internalType": "uint256",
                    "name": "id",
                    "type": "uint256"
                }
            ],
            "name": "URI",
            "type": "event"
        },
        {
            "inputs": [
                {
                    "internalType": "address",
                    "name": "account",
                    "type": "address"
                },
                {
                    "internalType": "uint256",
                    "name": "id",
                    "type": "uint256"
                }
            ],
            "name": "balanceOf",
            "outputs": [
                {
                    "internalType": "uint256",
                    "name": "",
                    "type": "uint256"
                }
            ],
            "stateMutability": "view",
            "type": "function"
        },
        {
            "inputs": [
                {
                    "internalType": "address[]",
                    "name": "accounts",
                    "type": "address[]"
                },
                {
                    "internalType": "uint256[]",
                    "name": "ids",
                    "type": "uint256[]"
                }
            ],
            "name": "balanceOfBatch",
            "outputs": [
                {
                    "internalType": "uint256[]",
                    "name": "",
                    "type": "uint256[]"
                }
            ],
            "stateMutability": "view",
            "type": "function"
        },
        {
            "inputs": [],
            "name": "baseUri",
            "outputs": [
                {
                    "internalType": "string",
                    "name": "",
                    "type": "string"
                }
            ],
            "stateMutability": "view",
            "type": "function"
        },
        {
            "inputs": [
                {
                    "internalType": "address",
                    "name": "account",
                    "type": "address"
                },
                {
                    "internalType": "address",
                    "name": "operator",
                    "type": "address"
                }
            ],
            "name": "isApprovedForAll",
            "outputs": [
                {
                    "internalType": "bool",
                    "name": "",
                    "type": "bool"
                }
            ],
            "stateMutability": "view",
            "type": "function"
        },
        {
            "inputs": [
                {
                    "internalType": "uint256",
                    "name": "amount",
                    "type": "uint256"
                }
            ],
            "name": "mint",
            "outputs": [],
            "stateMutability": "nonpayable",
            "type": "function"
        },
        {
            "inputs": [],
            "name": "name",
            "outputs": [
                {
                    "internalType": "string",
                    "name": "",
                    "type": "string"
                }
            ],
            "stateMutability": "view",
            "type": "function"
        },
        {
            "inputs": [],
            "name": "owner",
            "outputs": [
                {
                    "internalType": "address",
                    "name": "",
                    "type": "address"
                }
            ],
            "stateMutability": "view",
            "type": "function"
        },
        {
            "inputs": [],
            "name": "renounceOwnership",
            "outputs": [],
            "stateMutability": "nonpayable",
            "type": "function"
        },
        {
            "inputs": [
                {
                    "internalType": "address",
                    "name": "from",
                    "type": "address"
                },
                {
                    "internalType": "address",
                    "name": "to",
                    "type": "address"
                },
                {
                    "internalType": "uint256[]",
                    "name": "ids",
                    "type": "uint256[]"
                },
                {
                    "internalType": "uint256[]",
                    "name": "amounts",
                    "type": "uint256[]"
                },
                {
                    "internalType": "bytes",
                    "name": "data",
                    "type": "bytes"
                }
            ],
            "name": "safeBatchTransferFrom",
            "outputs": [],
            "stateMutability": "nonpayable",
            "type": "function"
        },
        {
            "inputs": [
                {
                    "internalType": "address",
                    "name": "from",
                    "type": "address"
                },
                {
                    "internalType": "address",
                    "name": "to",
                    "type": "address"
                },
                {
                    "internalType": "uint256",
                    "name": "id",
                    "type": "uint256"
                },
                {
                    "internalType": "uint256",
                    "name": "amount",
                    "type": "uint256"
                },
                {
                    "internalType": "bytes",
                    "name": "data",
                    "type": "bytes"
                }
            ],
            "name": "safeTransferFrom",
            "outputs": [],
            "stateMutability": "nonpayable",
            "type": "function"
        },
        {
            "inputs": [
                {
                    "internalType": "address",
                    "name": "operator",
                    "type": "address"
                },
                {
                    "internalType": "bool",
                    "name": "approved",
                    "type": "bool"
                }
            ],
            "name": "setApprovalForAll",
            "outputs": [],
            "stateMutability": "nonpayable",
            "type": "function"
        },
        {
            "inputs": [
                {
                    "internalType": "bytes4",
                    "name": "interfaceId",
                    "type": "bytes4"
                }
            ],
            "name": "supportsInterface",
            "outputs": [
                {
                    "internalType": "bool",
                    "name": "",
                    "type": "bool"
                }
            ],
            "stateMutability": "view",
            "type": "function"
        },
        {
            "inputs": [],
            "name": "symbol",
            "outputs": [
                {
                    "internalType": "string",
                    "name": "",
                    "type": "string"
                }
            ],
            "stateMutability": "view",
            "type": "function"
        },
        {
            "inputs": [],
            "name": "tokenCount",
            "outputs": [
                {
                    "internalType": "uint256",
                    "name": "",
                    "type": "uint256"
                }
            ],
            "stateMutability": "view",
            "type": "function"
        },
        {
            "inputs": [
                {
                    "internalType": "address",
                    "name": "newOwner",
                    "type": "address"
                }
            ],
            "name": "transferOwnership",
            "outputs": [],
            "stateMutability": "nonpayable",
            "type": "function"
        },
        {
            "inputs": [
                {
                    "internalType": "uint256",
                    "name": "_tokenId",
                    "type": "uint256"
                }
            ],
            "name": "uri",
            "outputs": [
                {
                    "internalType": "string",
                    "name": "",
                    "type": "string"
                }
            ],
            "stateMutability": "view",
            "type": "function"
        }
    ],
    "bytecode": "0x60806040523480156200001157600080fd5b506040516200382a3803806200382a8339818101604052810190620000379190620002ca565b806200004981620000be60201b60201c565b506200006a6200005e620000da60201b60201c565b620000e260201b60201c565b826004908051906020019062000082929190620001a8565b5081600590805190602001906200009b929190620001a8565b508060079080519060200190620000b4929190620001a8565b50505050620004db565b8060029080519060200190620000d6929190620001a8565b5050565b600033905090565b6000600360009054906101000a900473ffffffffffffffffffffffffffffffffffffffff16905081600360006101000a81548173ffffffffffffffffffffffffffffffffffffffff021916908373ffffffffffffffffffffffffffffffffffffffff1602179055508173ffffffffffffffffffffffffffffffffffffffff168173ffffffffffffffffffffffffffffffffffffffff167f8be0079c531659141344cd1fd0a4f28419497f9722a3daafe3b4186f6b6457e060405160405180910390a35050565b828054620001b69062000400565b90600052602060002090601f016020900481019282620001da576000855562000226565b82601f10620001f557805160ff191683800117855562000226565b8280016001018555821562000226579182015b828111156200022557825182559160200191906001019062000208565b5b50905062000235919062000239565b5090565b5b80821115620002545760008160009055506001016200023a565b5090565b60006200026f620002698462000394565b6200036b565b9050828152602081018484840111156200028857600080fd5b62000295848285620003ca565b509392505050565b600082601f830112620002af57600080fd5b8151620002c184826020860162000258565b91505092915050565b600080600060608486031215620002e057600080fd5b600084015167ffffffffffffffff811115620002fb57600080fd5b62000309868287016200029d565b935050602084015167ffffffffffffffff8111156200032757600080fd5b62000335868287016200029d565b925050604084015167ffffffffffffffff8111156200035357600080fd5b62000361868287016200029d565b9150509250925092565b6000620003776200038a565b905062000385828262000436565b919050565b6000604051905090565b600067ffffffffffffffff821115620003b257620003b16200049b565b5b620003bd82620004ca565b9050602081019050919050565b60005b83811015620003ea578082015181840152602081019050620003cd565b83811115620003fa576000848401525b50505050565b600060028204905060018216806200041957607f821691505b6020821081141562000430576200042f6200046c565b5b50919050565b6200044182620004ca565b810181811067ffffffffffffffff821117156200046357620004626200049b565b5b80604052505050565b7f4e487b7100000000000000000000000000000000000000000000000000000000600052602260045260246000fd5b7f4e487b7100000000000000000000000000000000000000000000000000000000600052604160045260246000fd5b6000601f19601f8301169050919050565b61333f80620004eb6000396000f3fe608060405234801561001057600080fd5b50600436106100ff5760003560e01c806395d89b4111610097578063a22cb46511610066578063a22cb4651461029c578063e985e9c5146102b8578063f242432a146102e8578063f2fde38b14610304576100ff565b806395d89b41146102265780639abc8320146102445780639f181b5e14610262578063a0712d6814610280576100ff565b80632eb2c2d6116100d35780632eb2c2d6146101b25780634e1273f4146101ce578063715018a6146101fe5780638da5cb5b14610208576100ff565b8062fdd58e1461010457806301ffc9a71461013457806306fdde03146101645780630e89341c14610182575b600080fd5b61011e60048036038101906101199190612121565b610320565b60405161012b9190612944565b60405180910390f35b61014e600480360381019061014991906121c9565b6103e9565b60405161015b9190612767565b60405180910390f35b61016c6104cb565b6040516101799190612782565b60405180910390f35b61019c6004803603810190610197919061221b565b610559565b6040516101a99190612782565b60405180910390f35b6101cc60048036038101906101c79190611f97565b61058d565b005b6101e860048036038101906101e3919061215d565b61062e565b6040516101f5919061270e565b60405180910390f35b6102066107df565b005b610210610867565b60405161021d9190612631565b60405180910390f35b61022e610891565b60405161023b9190612782565b60405180910390f35b61024c61091f565b6040516102599190612782565b60405180910390f35b61026a6109ad565b6040516102779190612944565b60405180910390f35b61029a6004803603810190610295919061221b565b6109b3565b005b6102b660048036038101906102b191906120e5565b610a69565b005b6102d260048036038101906102cd9190611f5b565b610a7f565b6040516102df9190612767565b60405180910390f35b61030260048036038101906102fd9190612056565b610b13565b005b61031e60048036038101906103199190611f32565b610bb4565b005b60008073ffffffffffffffffffffffffffffffffffffffff168373ffffffffffffffffffffffffffffffffffffffff161415610391576040517f08c379a0000000000000000000000000000000000000000000000000000000008152600401610388906127e4565b60405180910390fd5b60008083815260200190815260200160002060008473ffffffffffffffffffffffffffffffffffffffff1673ffffffffffffffffffffffffffffffffffffffff16815260200190815260200160002054905092915050565b60007fd9b67a26000000000000000000000000000000000000000000000000000000007bffffffffffffffffffffffffffffffffffffffffffffffffffffffff1916827bffffffffffffffffffffffffffffffffffffffffffffffffffffffff191614806104b457507f0e89341c000000000000000000000000000000000000000000000000000000007bffffffffffffffffffffffffffffffffffffffffffffffffffffffff1916827bffffffffffffffffffffffffffffffffffffffffffffffffffffffff1916145b806104c457506104c382610cac565b5b9050919050565b600480546104d890612c38565b80601f016020809104026020016040519081016040528092919081815260200182805461050490612c38565b80156105515780601f1061052657610100808354040283529160200191610551565b820191906000526020600020905b81548152906001019060200180831161053457829003601f168201915b505050505081565b6060600761056683610d16565b604051602001610577929190612602565b6040516020818303038152906040529050919050565b610595610ec3565b73ffffffffffffffffffffffffffffffffffffffff168573ffffffffffffffffffffffffffffffffffffffff1614806105db57506105da856105d5610ec3565b610a7f565b5b61061a576040517f08c379a000000000000000000000000000000000000000000000000000000000815260040161061190612864565b60405180910390fd5b6106278585858585610ecb565b5050505050565b60608151835114610674576040517f08c379a000000000000000000000000000000000000000000000000000000000815260040161066b906128e4565b60405180910390fd5b6000835167ffffffffffffffff8111156106b7577f4e487b7100000000000000000000000000000000000000000000000000000000600052604160045260246000fd5b6040519080825280602002602001820160405280156106e55781602001602082028036833780820191505090505b50905060005b84518110156107d45761077e858281518110610730577f4e487b7100000000000000000000000000000000000000000000000000000000600052603260045260246000fd5b6020026020010151858381518110610771577f4e487b7100000000000000000000000000000000000000000000000000000000600052603260045260246000fd5b6020026020010151610320565b8282815181106107b7577f4e487b7100000000000000000000000000000000000000000000000000000000600052603260045260246000fd5b602002602001018181525050806107cd90612c9b565b90506106eb565b508091505092915050565b6107e7610ec3565b73ffffffffffffffffffffffffffffffffffffffff16610805610867565b73ffffffffffffffffffffffffffffffffffffffff161461085b576040517f08c379a0000000000000000000000000000000000000000000000000000000008152600401610852906128a4565b60405180910390fd5b610865600061122b565b565b6000600360009054906101000a900473ffffffffffffffffffffffffffffffffffffffff16905090565b6005805461089e90612c38565b80601f01602080910402602001604051908101604052809291908181526020018280546108ca90612c38565b80156109175780601f106108ec57610100808354040283529160200191610917565b820191906000526020600020905b8154815290600101906020018083116108fa57829003601f168201915b505050505081565b6007805461092c90612c38565b80601f016020809104026020016040519081016040528092919081815260200182805461095890612c38565b80156109a55780601f1061097a576101008083540402835291602001916109a5565b820191906000526020600020905b81548152906001019060200180831161098857829003601f168201915b505050505081565b60065481565b6109bb610ec3565b73ffffffffffffffffffffffffffffffffffffffff166109d9610867565b73ffffffffffffffffffffffffffffffffffffffff1614610a2f576040517f08c379a0000000000000000000000000000000000000000000000000000000008152600401610a26906128a4565b60405180910390fd5b600160066000828254610a429190612ac7565b92505081905550610a663360065483604051806020016040528060008152506112f1565b50565b610a7b610a74610ec3565b8383611487565b5050565b6000600160008473ffffffffffffffffffffffffffffffffffffffff1673ffffffffffffffffffffffffffffffffffffffff16815260200190815260200160002060008373ffffffffffffffffffffffffffffffffffffffff1673ffffffffffffffffffffffffffffffffffffffff16815260200190815260200160002060009054906101000a900460ff16905092915050565b610b1b610ec3565b73ffffffffffffffffffffffffffffffffffffffff168573ffffffffffffffffffffffffffffffffffffffff161480610b615750610b6085610b5b610ec3565b610a7f565b5b610ba0576040517f08c379a0000000000000000000000000000000000000000000000000000000008152600401610b9790612824565b60405180910390fd5b610bad85858585856115f4565b5050505050565b610bbc610ec3565b73ffffffffffffffffffffffffffffffffffffffff16610bda610867565b73ffffffffffffffffffffffffffffffffffffffff1614610c30576040517f08c379a0000000000000000000000000000000000000000000000000000000008152600401610c27906128a4565b60405180910390fd5b600073ffffffffffffffffffffffffffffffffffffffff168173ffffffffffffffffffffffffffffffffffffffff161415610ca0576040517f08c379a0000000000000000000000000000000000000000000000000000000008152600401610c9790612804565b60405180910390fd5b610ca98161122b565b50565b60007f01ffc9a7000000000000000000000000000000000000000000000000000000007bffffffffffffffffffffffffffffffffffffffffffffffffffffffff1916827bffffffffffffffffffffffffffffffffffffffffffffffffffffffff1916149050919050565b60606000821415610d5e576040518060400160405280600181526020017f30000000000000000000000000000000000000000000000000000000000000008152509050610ebe565b600082905060005b60008214610d90578080610d7990612c9b565b915050600a82610d899190612b1d565b9150610d66565b60008167ffffffffffffffff811115610dd2577f4e487b7100000000000000000000000000000000000000000000000000000000600052604160045260246000fd5b6040519080825280601f01601f191660200182016040528015610e045781602001600182028036833780820191505090505b5090505b60008514610eb757600182610e1d9190612b4e565b9150600a85610e2c9190612ce4565b6030610e389190612ac7565b60f81b818381518110610e74577f4e487b7100000000000000000000000000000000000000000000000000000000600052603260045260246000fd5b60200101907effffffffffffffffffffffffffffffffffffffffffffffffffffffffffffff1916908160001a905350600a85610eb09190612b1d565b9450610e08565b8093505050505b919050565b600033905090565b8151835114610f0f576040517f08c379a0000000000000000000000000000000000000000000000000000000008152600401610f0690612904565b60405180910390fd5b600073ffffffffffffffffffffffffffffffffffffffff168473ffffffffffffffffffffffffffffffffffffffff161415610f7f576040517f08c379a0000000000000000000000000000000000000000000000000000000008152600401610f7690612844565b60405180910390fd5b6000610f89610ec3565b9050610f99818787878787611876565b60005b8451811015611196576000858281518110610fe0577f4e487b7100000000000000000000000000000000000000000000000000000000600052603260045260246000fd5b602002602001015190506000858381518110611025577f4e487b7100000000000000000000000000000000000000000000000000000000600052603260045260246000fd5b60200260200101519050600080600084815260200190815260200160002060008b73ffffffffffffffffffffffffffffffffffffffff1673ffffffffffffffffffffffffffffffffffffffff168152602001908152602001600020549050818110156110c6576040517f08c379a00000000000000000000000000000000000000000000000000000000081526004016110bd90612884565b60405180910390fd5b81810360008085815260200190815260200160002060008c73ffffffffffffffffffffffffffffffffffffffff1673ffffffffffffffffffffffffffffffffffffffff168152602001908152602001600020819055508160008085815260200190815260200160002060008b73ffffffffffffffffffffffffffffffffffffffff1673ffffffffffffffffffffffffffffffffffffffff168152602001908152602001600020600082825461117b9190612ac7565b925050819055505050508061118f90612c9b565b9050610f9c565b508473ffffffffffffffffffffffffffffffffffffffff168673ffffffffffffffffffffffffffffffffffffffff168273ffffffffffffffffffffffffffffffffffffffff167f4a39dc06d4c0dbc64b70af90fd698a233a518aa5d07e595d983b8c0526c8f7fb878760405161120d929190612730565b60405180910390a461122381878787878761187e565b505050505050565b6000600360009054906101000a900473ffffffffffffffffffffffffffffffffffffffff16905081600360006101000a81548173ffffffffffffffffffffffffffffffffffffffff021916908373ffffffffffffffffffffffffffffffffffffffff1602179055508173ffffffffffffffffffffffffffffffffffffffff168173ffffffffffffffffffffffffffffffffffffffff167f8be0079c531659141344cd1fd0a4f28419497f9722a3daafe3b4186f6b6457e060405160405180910390a35050565b600073ffffffffffffffffffffffffffffffffffffffff168473ffffffffffffffffffffffffffffffffffffffff161415611361576040517f08c379a000000000000000000000000000000000000000000000000000000000815260040161135890612924565b60405180910390fd5b600061136b610ec3565b905061138c8160008761137d88611a65565b61138688611a65565b87611876565b8260008086815260200190815260200160002060008773ffffffffffffffffffffffffffffffffffffffff1673ffffffffffffffffffffffffffffffffffffffff16815260200190815260200160002060008282546113eb9190612ac7565b925050819055508473ffffffffffffffffffffffffffffffffffffffff16600073ffffffffffffffffffffffffffffffffffffffff168273ffffffffffffffffffffffffffffffffffffffff167fc3d58168c5ae7397731d063d5bbf3d657854427343f4c083240f7aacaa2d0f62878760405161146992919061295f565b60405180910390a461148081600087878787611b2b565b5050505050565b8173ffffffffffffffffffffffffffffffffffffffff168373ffffffffffffffffffffffffffffffffffffffff1614156114f6576040517f08c379a00000000000000000000000000000000000000000000000000000000081526004016114ed906128c4565b60405180910390fd5b80600160008573ffffffffffffffffffffffffffffffffffffffff1673ffffffffffffffffffffffffffffffffffffffff16815260200190815260200160002060008473ffffffffffffffffffffffffffffffffffffffff1673ffffffffffffffffffffffffffffffffffffffff16815260200190815260200160002060006101000a81548160ff0219169083151502179055508173ffffffffffffffffffffffffffffffffffffffff168373ffffffffffffffffffffffffffffffffffffffff167f17307eab39ab6107e8899845ad3d59bd9653f200f220920489ca2b5937696c31836040516115e79190612767565b60405180910390a3505050565b600073ffffffffffffffffffffffffffffffffffffffff168473ffffffffffffffffffffffffffffffffffffffff161415611664576040517f08c379a000000000000000000000000000000000000000000000000000000000815260040161165b90612844565b60405180910390fd5b600061166e610ec3565b905061168e81878761167f88611a65565b61168888611a65565b87611876565b600080600086815260200190815260200160002060008873ffffffffffffffffffffffffffffffffffffffff1673ffffffffffffffffffffffffffffffffffffffff16815260200190815260200160002054905083811015611725576040517f08c379a000000000000000000000000000000000000000000000000000000000815260040161171c90612884565b60405180910390fd5b83810360008087815260200190815260200160002060008973ffffffffffffffffffffffffffffffffffffffff1673ffffffffffffffffffffffffffffffffffffffff168152602001908152602001600020819055508360008087815260200190815260200160002060008873ffffffffffffffffffffffffffffffffffffffff1673ffffffffffffffffffffffffffffffffffffffff16815260200190815260200160002060008282546117da9190612ac7565b925050819055508573ffffffffffffffffffffffffffffffffffffffff168773ffffffffffffffffffffffffffffffffffffffff168373ffffffffffffffffffffffffffffffffffffffff167fc3d58168c5ae7397731d063d5bbf3d657854427343f4c083240f7aacaa2d0f62888860405161185792919061295f565b60405180910390a461186d828888888888611b2b565b50505050505050565b505050505050565b61189d8473ffffffffffffffffffffffffffffffffffffffff16611d12565b15611a5d578373ffffffffffffffffffffffffffffffffffffffff1663bc197c8187878686866040518663ffffffff1660e01b81526004016118e395949392919061264c565b602060405180830381600087803b1580156118fd57600080fd5b505af192505050801561192e57506040513d601f19601f8201168201806040525081019061192b91906121f2565b60015b6119d45761193a612dd1565b806308c379a01415611997575061194f613217565b8061195a5750611999565b806040517f08c379a000000000000000000000000000000000000000000000000000000000815260040161198e9190612782565b60405180910390fd5b505b6040517f08c379a00000000000000000000000000000000000000000000000000000000081526004016119cb906127a4565b60405180910390fd5b63bc197c8160e01b7bffffffffffffffffffffffffffffffffffffffffffffffffffffffff1916817bffffffffffffffffffffffffffffffffffffffffffffffffffffffff191614611a5b576040517f08c379a0000000000000000000000000000000000000000000000000000000008152600401611a52906127c4565b60405180910390fd5b505b505050505050565b60606000600167ffffffffffffffff811115611aaa577f4e487b7100000000000000000000000000000000000000000000000000000000600052604160045260246000fd5b604051908082528060200260200182016040528015611ad85781602001602082028036833780820191505090505b5090508281600081518110611b16577f4e487b7100000000000000000000000000000000000000000000000000000000600052603260045260246000fd5b60200260200101818152505080915050919050565b611b4a8473ffffffffffffffffffffffffffffffffffffffff16611d12565b15611d0a578373ffffffffffffffffffffffffffffffffffffffff1663f23a6e6187878686866040518663ffffffff1660e01b8152600401611b909594939291906126b4565b602060405180830381600087803b158015611baa57600080fd5b505af1925050508015611bdb57506040513d601f19601f82011682018060405250810190611bd891906121f2565b60015b611c8157611be7612dd1565b806308c379a01415611c445750611bfc613217565b80611c075750611c46565b806040517f08c379a0000000000000000000000000000000000000000000000000000000008152600401611c3b9190612782565b60405180910390fd5b505b6040517f08c379a0000000000000000000000000000000000000000000000000000000008152600401611c78906127a4565b60405180910390fd5b63f23a6e6160e01b7bffffffffffffffffffffffffffffffffffffffffffffffffffffffff1916817bffffffffffffffffffffffffffffffffffffffffffffffffffffffff191614611d08576040517f08c379a0000000000000000000000000000000000000000000000000000000008152600401611cff906127c4565b60405180910390fd5b505b505050505050565b6000808273ffffffffffffffffffffffffffffffffffffffff163b119050919050565b6000611d48611d43846129ad565b612988565b90508083825260208201905082856020860282011115611d6757600080fd5b60005b85811015611d975781611d7d8882611e4b565b845260208401935060208301925050600181019050611d6a565b5050509392505050565b6000611db4611daf846129d9565b612988565b90508083825260208201905082856020860282011115611dd357600080fd5b60005b85811015611e035781611de98882611f1d565b845260208401935060208301925050600181019050611dd6565b5050509392505050565b6000611e20611e1b84612a05565b612988565b905082815260208101848484011115611e3857600080fd5b611e43848285612bf6565b509392505050565b600081359050611e5a816132ad565b92915050565b600082601f830112611e7157600080fd5b8135611e81848260208601611d35565b91505092915050565b600082601f830112611e9b57600080fd5b8135611eab848260208601611da1565b91505092915050565b600081359050611ec3816132c4565b92915050565b600081359050611ed8816132db565b92915050565b600081519050611eed816132db565b92915050565b600082601f830112611f0457600080fd5b8135611f14848260208601611e0d565b91505092915050565b600081359050611f2c816132f2565b92915050565b600060208284031215611f4457600080fd5b6000611f5284828501611e4b565b91505092915050565b60008060408385031215611f6e57600080fd5b6000611f7c85828601611e4b565b9250506020611f8d85828601611e4b565b9150509250929050565b600080600080600060a08688031215611faf57600080fd5b6000611fbd88828901611e4b565b9550506020611fce88828901611e4b565b945050604086013567ffffffffffffffff811115611feb57600080fd5b611ff788828901611e8a565b935050606086013567ffffffffffffffff81111561201457600080fd5b61202088828901611e8a565b925050608086013567ffffffffffffffff81111561203d57600080fd5b61204988828901611ef3565b9150509295509295909350565b600080600080600060a0868803121561206e57600080fd5b600061207c88828901611e4b565b955050602061208d88828901611e4b565b945050604061209e88828901611f1d565b93505060606120af88828901611f1d565b925050608086013567ffffffffffffffff8111156120cc57600080fd5b6120d888828901611ef3565b9150509295509295909350565b600080604083850312156120f857600080fd5b600061210685828601611e4b565b925050602061211785828601611eb4565b9150509250929050565b6000806040838503121561213457600080fd5b600061214285828601611e4b565b925050602061215385828601611f1d565b9150509250929050565b6000806040838503121561217057600080fd5b600083013567ffffffffffffffff81111561218a57600080fd5b61219685828601611e60565b925050602083013567ffffffffffffffff8111156121b357600080fd5b6121bf85828601611e8a565b9150509250929050565b6000602082840312156121db57600080fd5b60006121e984828501611ec9565b91505092915050565b60006020828403121561220457600080fd5b600061221284828501611ede565b91505092915050565b60006020828403121561222d57600080fd5b600061223b84828501611f1d565b91505092915050565b600061225083836125e4565b60208301905092915050565b61226581612b82565b82525050565b600061227682612a5b565b6122808185612a89565b935061228b83612a36565b8060005b838110156122bc5781516122a38882612244565b97506122ae83612a7c565b92505060018101905061228f565b5085935050505092915050565b6122d281612b94565b82525050565b60006122e382612a66565b6122ed8185612a9a565b93506122fd818560208601612c05565b61230681612df3565b840191505092915050565b600061231c82612a71565b6123268185612aab565b9350612336818560208601612c05565b61233f81612df3565b840191505092915050565b600061235582612a71565b61235f8185612abc565b935061236f818560208601612c05565b80840191505092915050565b6000815461238881612c38565b6123928186612abc565b945060018216600081146123ad57600181146123be576123f1565b60ff198316865281860193506123f1565b6123c785612a46565b60005b838110156123e9578154818901526001820191506020810190506123ca565b838801955050505b50505092915050565b6000612407603483612aab565b915061241282612e11565b604082019050919050565b600061242a602883612aab565b915061243582612e60565b604082019050919050565b600061244d602b83612aab565b915061245882612eaf565b604082019050919050565b6000612470602683612aab565b915061247b82612efe565b604082019050919050565b6000612493602983612aab565b915061249e82612f4d565b604082019050919050565b60006124b6602583612aab565b91506124c182612f9c565b604082019050919050565b60006124d9603283612aab565b91506124e482612feb565b604082019050919050565b60006124fc602a83612aab565b91506125078261303a565b604082019050919050565b600061251f600583612abc565b915061252a82613089565b600582019050919050565b6000612542602083612aab565b915061254d826130b2565b602082019050919050565b6000612565602983612aab565b9150612570826130db565b604082019050919050565b6000612588602983612aab565b91506125938261312a565b604082019050919050565b60006125ab602883612aab565b91506125b682613179565b604082019050919050565b60006125ce602183612aab565b91506125d9826131c8565b604082019050919050565b6125ed81612bec565b82525050565b6125fc81612bec565b82525050565b600061260e828561237b565b915061261a828461234a565b915061262582612512565b91508190509392505050565b6000602082019050612646600083018461225c565b92915050565b600060a082019050612661600083018861225c565b61266e602083018761225c565b8181036040830152612680818661226b565b90508181036060830152612694818561226b565b905081810360808301526126a881846122d8565b90509695505050505050565b600060a0820190506126c9600083018861225c565b6126d6602083018761225c565b6126e360408301866125f3565b6126f060608301856125f3565b818103608083015261270281846122d8565b90509695505050505050565b60006020820190508181036000830152612728818461226b565b905092915050565b6000604082019050818103600083015261274a818561226b565b9050818103602083015261275e818461226b565b90509392505050565b600060208201905061277c60008301846122c9565b92915050565b6000602082019050818103600083015261279c8184612311565b905092915050565b600060208201905081810360008301526127bd816123fa565b9050919050565b600060208201905081810360008301526127dd8161241d565b9050919050565b600060208201905081810360008301526127fd81612440565b9050919050565b6000602082019050818103600083015261281d81612463565b9050919050565b6000602082019050818103600083015261283d81612486565b9050919050565b6000602082019050818103600083015261285d816124a9565b9050919050565b6000602082019050818103600083015261287d816124cc565b9050919050565b6000602082019050818103600083015261289d816124ef565b9050919050565b600060208201905081810360008301526128bd81612535565b9050919050565b600060208201905081810360008301526128dd81612558565b9050919050565b600060208201905081810360008301526128fd8161257b565b9050919050565b6000602082019050818103600083015261291d8161259e565b9050919050565b6000602082019050818103600083015261293d816125c1565b9050919050565b600060208201905061295960008301846125f3565b92915050565b600060408201905061297460008301856125f3565b61298160208301846125f3565b9392505050565b60006129926129a3565b905061299e8282612c6a565b919050565b6000604051905090565b600067ffffffffffffffff8211156129c8576129c7612da2565b5b602082029050602081019050919050565b600067ffffffffffffffff8211156129f4576129f3612da2565b5b602082029050602081019050919050565b600067ffffffffffffffff821115612a2057612a1f612da2565b5b612a2982612df3565b9050602081019050919050565b6000819050602082019050919050565b60008190508160005260206000209050919050565b600081519050919050565b600081519050919050565b600081519050919050565b6000602082019050919050565b600082825260208201905092915050565b600082825260208201905092915050565b600082825260208201905092915050565b600081905092915050565b6000612ad282612bec565b9150612add83612bec565b9250827fffffffffffffffffffffffffffffffffffffffffffffffffffffffffffffffff03821115612b1257612b11612d15565b5b828201905092915050565b6000612b2882612bec565b9150612b3383612bec565b925082612b4357612b42612d44565b5b828204905092915050565b6000612b5982612bec565b9150612b6483612bec565b925082821015612b7757612b76612d15565b5b828203905092915050565b6000612b8d82612bcc565b9050919050565b60008115159050919050565b60007fffffffff0000000000000000000000000000000000000000000000000000000082169050919050565b600073ffffffffffffffffffffffffffffffffffffffff82169050919050565b6000819050919050565b82818337600083830152505050565b60005b83811015612c23578082015181840152602081019050612c08565b83811115612c32576000848401525b50505050565b60006002820490506001821680612c5057607f821691505b60208210811415612c6457612c63612d73565b5b50919050565b612c7382612df3565b810181811067ffffffffffffffff82111715612c9257612c91612da2565b5b80604052505050565b6000612ca682612bec565b91507fffffffffffffffffffffffffffffffffffffffffffffffffffffffffffffffff821415612cd957612cd8612d15565b5b600182019050919050565b6000612cef82612bec565b9150612cfa83612bec565b925082612d0a57612d09612d44565b5b828206905092915050565b7f4e487b7100000000000000000000000000000000000000000000000000000000600052601160045260246000fd5b7f4e487b7100000000000000000000000000000000000000000000000000000000600052601260045260246000fd5b7f4e487b7100000000000000000000000000000000000000000000000000000000600052602260045260246000fd5b7f4e487b7100000000000000000000000000000000000000000000000000000000600052604160045260246000fd5b600060033d1115612df05760046000803e612ded600051612e04565b90505b90565b6000601f19601f8301169050919050565b60008160e01c9050919050565b7f455243313135353a207472616e7366657220746f206e6f6e204552433131353560008201527f526563656976657220696d706c656d656e746572000000000000000000000000602082015250565b7f455243313135353a204552433131353552656365697665722072656a6563746560008201527f6420746f6b656e73000000000000000000000000000000000000000000000000602082015250565b7f455243313135353a2062616c616e636520717565727920666f7220746865207a60008201527f65726f2061646472657373000000000000000000000000000000000000000000602082015250565b7f4f776e61626c653a206e6577206f776e657220697320746865207a65726f206160008201527f6464726573730000000000000000000000000000000000000000000000000000602082015250565b7f455243313135353a2063616c6c6572206973206e6f74206f776e6572206e6f7260008201527f20617070726f7665640000000000000000000000000000000000000000000000602082015250565b7f455243313135353a207472616e7366657220746f20746865207a65726f20616460008201527f6472657373000000000000000000000000000000000000000000000000000000602082015250565b7f455243313135353a207472616e736665722063616c6c6572206973206e6f742060008201527f6f776e6572206e6f7220617070726f7665640000000000000000000000000000602082015250565b7f455243313135353a20696e73756666696369656e742062616c616e636520666f60008201527f72207472616e7366657200000000000000000000000000000000000000000000602082015250565b7f2e6a736f6e000000000000000000000000000000000000000000000000000000600082015250565b7f4f776e61626c653a2063616c6c6572206973206e6f7420746865206f776e6572600082015250565b7f455243313135353a2073657474696e6720617070726f76616c2073746174757360008201527f20666f722073656c660000000000000000000000000000000000000000000000602082015250565b7f455243313135353a206163636f756e747320616e6420696473206c656e67746860008201527f206d69736d617463680000000000000000000000000000000000000000000000602082015250565b7f455243313135353a2069647320616e6420616d6f756e7473206c656e6774682060008201527f6d69736d61746368000000000000000000000000000000000000000000000000602082015250565b7f455243313135353a206d696e7420746f20746865207a65726f2061646472657360008201527f7300000000000000000000000000000000000000000000000000000000000000602082015250565b600060443d1015613227576132aa565b61322f6129a3565b60043d036004823e80513d602482011167ffffffffffffffff821117156132575750506132aa565b808201805167ffffffffffffffff81111561327557505050506132aa565b80602083010160043d0385018111156132925750505050506132aa565b6132a182602001850186612c6a565b82955050505050505b90565b6132b681612b82565b81146132c157600080fd5b50565b6132cd81612b94565b81146132d857600080fd5b50565b6132e481612ba0565b81146132ef57600080fd5b50565b6132fb81612bec565b811461330657600080fd5b5056fea264697066735822122056e4a4f2fef12df2c1dee5cf595f1a462fe6b10c9bcfbd84c3d8d8cfc6e4a3ac64736f6c63430008020033",
    "linkReferences": {},
    "deployedLinkReferences": {}
}